{
  "_format": "hh-sol-artifact-1",
  "contractName": "Lottery",
  "sourceName": "contracts/Lottery.sol",
  "abi": [
    {
      "inputs": [
        {
          "internalType": "address",
          "name": "vrfCoordinatorV2",
          "type": "address"
        },
        {
          "internalType": "uint256",
          "name": "enteranceFee",
          "type": "uint256"
        },
        {
          "internalType": "bytes32",
          "name": "keyHash",
          "type": "bytes32"
        },
        {
          "internalType": "uint64",
          "name": "subscriptionId",
          "type": "uint64"
        },
        {
          "internalType": "uint32",
          "name": "gasLimit",
          "type": "uint32"
        },
        {
          "internalType": "uint256",
          "name": "interval",
          "type": "uint256"
        }
      ],
      "stateMutability": "nonpayable",
      "type": "constructor"
    },
    {
      "inputs": [],
      "name": "Lottery__NotEnoughETHEntered",
      "type": "error"
    },
    {
      "inputs": [],
      "name": "Lottery__NotOpen",
      "type": "error"
    },
    {
      "inputs": [],
      "name": "Lottery__TransferFailed",
      "type": "error"
    },
    {
      "inputs": [
        {
          "internalType": "uint256",
          "name": "currentBalance",
          "type": "uint256"
        },
        {
          "internalType": "uint256",
          "name": "numPlayers",
          "type": "uint256"
        },
        {
          "internalType": "uint256",
          "name": "lotteryState",
          "type": "uint256"
        }
      ],
      "name": "Lottery__UpkeepNotNeeded",
      "type": "error"
    },
    {
      "inputs": [
        {
          "internalType": "address",
          "name": "have",
          "type": "address"
        },
        {
          "internalType": "address",
          "name": "want",
          "type": "address"
        }
      ],
      "name": "OnlyCoordinatorCanFulfill",
      "type": "error"
    },
    {
      "anonymous": false,
      "inputs": [
        {
          "indexed": true,
          "internalType": "address",
          "name": "player",
          "type": "address"
        }
      ],
      "name": "LotteryEnter",
      "type": "event"
    },
    {
      "anonymous": false,
      "inputs": [
        {
          "indexed": true,
          "internalType": "uint256",
          "name": "requestId",
          "type": "uint256"
        }
      ],
      "name": "RequestedLotteryWinner",
      "type": "event"
    },
    {
      "anonymous": false,
      "inputs": [
        {
          "indexed": true,
          "internalType": "address",
          "name": "winner",
          "type": "address"
        }
      ],
      "name": "WinnerPicked",
      "type": "event"
    },
    {
      "inputs": [
        {
          "internalType": "bytes",
          "name": "",
          "type": "bytes"
        }
      ],
      "name": "checkUpkeep",
      "outputs": [
        {
          "internalType": "bool",
          "name": "upkeepNeeded",
          "type": "bool"
        },
        {
          "internalType": "bytes",
          "name": "",
          "type": "bytes"
        }
      ],
      "stateMutability": "nonpayable",
      "type": "function"
    },
    {
      "inputs": [],
      "name": "enterLottery",
      "outputs": [],
      "stateMutability": "payable",
      "type": "function"
    },
    {
      "inputs": [],
      "name": "getEnteranceFee",
      "outputs": [
        {
          "internalType": "uint256",
          "name": "",
          "type": "uint256"
        }
      ],
      "stateMutability": "view",
      "type": "function"
    },
    {
      "inputs": [],
      "name": "getInterval",
      "outputs": [
        {
          "internalType": "uint256",
          "name": "",
          "type": "uint256"
        }
      ],
      "stateMutability": "view",
      "type": "function"
    },
    {
      "inputs": [],
      "name": "getLatestTimeStamp",
      "outputs": [
        {
          "internalType": "uint256",
          "name": "",
          "type": "uint256"
        }
      ],
      "stateMutability": "view",
      "type": "function"
    },
    {
      "inputs": [],
      "name": "getLotteryState",
      "outputs": [
        {
          "internalType": "enum Lottery.LotteryState",
          "name": "",
          "type": "uint8"
        }
      ],
      "stateMutability": "view",
      "type": "function"
    },
    {
      "inputs": [],
      "name": "getNumWords",
      "outputs": [
        {
          "internalType": "uint256",
          "name": "",
          "type": "uint256"
        }
      ],
      "stateMutability": "pure",
      "type": "function"
    },
    {
      "inputs": [],
      "name": "getNumberOfPlayers",
      "outputs": [
        {
          "internalType": "uint256",
          "name": "",
          "type": "uint256"
        }
      ],
      "stateMutability": "view",
      "type": "function"
    },
    {
      "inputs": [
        {
          "internalType": "uint256",
          "name": "index",
          "type": "uint256"
        }
      ],
      "name": "getPlayer",
      "outputs": [
        {
          "internalType": "address",
          "name": "",
          "type": "address"
        }
      ],
      "stateMutability": "view",
      "type": "function"
    },
    {
      "inputs": [],
      "name": "getRecentWinner",
      "outputs": [
        {
          "internalType": "address",
          "name": "",
          "type": "address"
        }
      ],
      "stateMutability": "view",
      "type": "function"
    },
    {
      "inputs": [],
      "name": "getRequestConfirmations",
      "outputs": [
        {
          "internalType": "uint256",
          "name": "",
          "type": "uint256"
        }
      ],
      "stateMutability": "pure",
      "type": "function"
    },
    {
      "inputs": [],
      "name": "getSubscriptionId",
      "outputs": [
        {
          "internalType": "uint64",
          "name": "",
          "type": "uint64"
        }
      ],
      "stateMutability": "view",
      "type": "function"
    },
    {
      "inputs": [
        {
          "internalType": "bytes",
          "name": "",
          "type": "bytes"
        }
      ],
      "name": "performUpkeep",
      "outputs": [],
      "stateMutability": "nonpayable",
      "type": "function"
    },
    {
      "inputs": [
        {
          "internalType": "uint256",
          "name": "requestId",
          "type": "uint256"
        },
        {
          "internalType": "uint256[]",
          "name": "randomWords",
          "type": "uint256[]"
        }
      ],
      "name": "rawFulfillRandomWords",
      "outputs": [],
      "stateMutability": "nonpayable",
      "type": "function"
    }
  ],
  "bytecode": "0x6101606040523480156200001257600080fd5b506040516200204e3803806200204e833981810160405281019062000038919062000393565b858073ffffffffffffffffffffffffffffffffffffffff1660808173ffffffffffffffffffffffffffffffffffffffff1681525050506200008a67ebf7e6aaeab89f2060c01b6200022a60201b60201c565b620000a667bfeb888f696553a560c01b6200022a60201b60201c565b8460e08181525050620000ca67bbba6330828ed09e60c01b6200022a60201b60201c565b8573ffffffffffffffffffffffffffffffffffffffff1660a08173ffffffffffffffffffffffffffffffffffffffff16815250506200011a679b8214e5043e971c60c01b6200022a60201b60201c565b8360c081815250506200013e67fbde8bf1519586d560c01b6200022a60201b60201c565b8267ffffffffffffffff166101008167ffffffffffffffff168152505062000177675bdf3a29309c058260c01b6200022a60201b60201c565b8163ffffffff166101208163ffffffff1681525050620001a867b3e56d9c1c005ec560c01b6200022a60201b60201c565b6000600160146101000a81548160ff02191690836001811115620001d157620001d06200042f565b5b0217905550620001f26791eaa4b0579e107160c01b6200022a60201b60201c565b426002819055506200021567bcfee9939407b9d760c01b6200022a60201b60201c565b8061014081815250505050505050506200045e565b50565b600080fd5b600073ffffffffffffffffffffffffffffffffffffffff82169050919050565b60006200025f8262000232565b9050919050565b620002718162000252565b81146200027d57600080fd5b50565b600081519050620002918162000266565b92915050565b6000819050919050565b620002ac8162000297565b8114620002b857600080fd5b50565b600081519050620002cc81620002a1565b92915050565b6000819050919050565b620002e781620002d2565b8114620002f357600080fd5b50565b6000815190506200030781620002dc565b92915050565b600067ffffffffffffffff82169050919050565b6200032c816200030d565b81146200033857600080fd5b50565b6000815190506200034c8162000321565b92915050565b600063ffffffff82169050919050565b6200036d8162000352565b81146200037957600080fd5b50565b6000815190506200038d8162000362565b92915050565b60008060008060008060c08789031215620003b357620003b26200022d565b5b6000620003c389828a0162000280565b9650506020620003d689828a01620002bb565b9550506040620003e989828a01620002f6565b9450506060620003fc89828a016200033b565b93505060806200040f89828a016200037c565b92505060a06200042289828a01620002bb565b9150509295509295509295565b7f4e487b7100000000000000000000000000000000000000000000000000000000600052602160045260246000fd5b60805160a05160c05160e051610100516101205161014051611b79620004d56000396000818161098e0152610a9c015260006106550152600081816106320152610d9b0152600081816107dc0152610afe01526000610611015260006105d501526000818161033e01526103920152611b796000f3fe6080604052600436106100dd5760003560e01c80636b68c03c1161007f578063c1af578511610059578063c1af57851461029f578063de3d9fb7146102a9578063e55ae4e8146102d4578063fd6673f514610311576100dd565b80636b68c03c1461020b5780636e04ff0d1461023657806391ad27b414610274576100dd565b8063473f1ddc116100bb578063473f1ddc1461015f578063535bf50f1461018a57806353a2c19a146101b55780635f1b0fd8146101e0576100dd565b80631fe543e3146100e2578063320229eb1461010b5780634585e33b14610136575b600080fd5b3480156100ee57600080fd5b5061010960048036038101906101049190611472565b61033c565b005b34801561011757600080fd5b506101206103fc565b60405161012d91906114dd565b60405180910390f35b34801561014257600080fd5b5061015d60048036038101906101589190611553565b610442565b005b34801561016b57600080fd5b50610174610736565b60405161018191906115e1565b60405180910390f35b34801561019657600080fd5b5061019f61079c565b6040516101ac91906114dd565b60405180910390f35b3480156101c157600080fd5b506101ca610800565b6040516101d791906114dd565b60405180910390f35b3480156101ec57600080fd5b506101f561084b565b60405161020291906114dd565b60405180910390f35b34801561021757600080fd5b50610220610894565b60405161022d9190611673565b60405180910390f35b34801561024257600080fd5b5061025d60048036038101906102589190611743565b6108e7565b60405161026b929190611826565b60405180910390f35b34801561028057600080fd5b50610289610a5c565b60405161029691906114dd565b60405180910390f35b6102a7610ac0565b005b3480156102b557600080fd5b506102be610d5b565b6040516102cb9190611879565b60405180910390f35b3480156102e057600080fd5b506102fb60048036038101906102f69190611894565b610dbf565b60405161030891906115e1565b60405180910390f35b34801561031d57600080fd5b50610326610e43565b60405161033391906114dd565b60405180910390f35b7f000000000000000000000000000000000000000000000000000000000000000073ffffffffffffffffffffffffffffffffffffffff163373ffffffffffffffffffffffffffffffffffffffff16146103ee57337f00000000000000000000000000000000000000000000000000000000000000006040517f1cf993f40000000000000000000000000000000000000000000000000000000081526004016103e59291906118c1565b60405180910390fd5b6103f88282610e8c565b5050565b600061041267b1029d2883a4951d60c01b611225565b61042667552c7f992f5da36c60c01b611225565b61043a67c3553dc9edbdb0d060c01b611225565b600254905090565b61045667b859f386867514eb60c01b611225565b61046a672bf3e2b9b9573ad960c01b611225565b61047e675887e794c043438f60c01b611225565b6000610498604051806020016040528060008152506108e7565b5090506104af67150751c343c9dcbf60c01b611225565b6104c367071d266921b85a9d60c01b611225565b80610557576104dc67b271356e1e149e1060c01b611225565b6104f0678577a1a61e9bcfec60c01b611225565b47600080549050600160149054906101000a900460ff166001811115610519576105186115fc565b5b6040517f6e195f2500000000000000000000000000000000000000000000000000000000815260040161054e939291906118ea565b60405180910390fd5b61056b67d7017cf55d10107e60c01b611225565b61057f67f1ee33bcd32493c460c01b611225565b60018060146101000a81548160ff021916908360018111156105a4576105a36115fc565b5b02179055506105bd67e9fdd6cbfde26b0360c01b611225565b6105d1672614ac0300a17c7b60c01b611225565b60007f000000000000000000000000000000000000000000000000000000000000000073ffffffffffffffffffffffffffffffffffffffff16635d3b1d307f00000000000000000000000000000000000000000000000000000000000000007f000000000000000000000000000000000000000000000000000000000000000060037f000000000000000000000000000000000000000000000000000000000000000060016040518663ffffffff1660e01b8152600401610696959493929190611976565b6020604051808303816000875af11580156106b5573d6000803e3d6000fd5b505050506040513d601f19601f820116820180604052508101906106d991906119de565b90506106ef676c1f2d0dda95b18260c01b611225565b610703679771e03cc46bb2f260c01b611225565b807febf56642252004c18a776f30d528e7a0ce8c5db14b6596fb6550f630c8a24c6c60405160405180910390a250505050565b600061074c672cb6f639eb4c6eda60c01b611225565b61076067545bd5cb7292d69c60c01b611225565b610774671054ac1cb6db738e60c01b611225565b600160009054906101000a900473ffffffffffffffffffffffffffffffffffffffff16905090565b60006107b267bd8ad6176b6b07bc60c01b611225565b6107c6671013f8510b723ad460c01b611225565b6107da674cc0e30b917e713860c01b611225565b7f0000000000000000000000000000000000000000000000000000000000000000905090565b6000610816679d71a0421ddfec3e60c01b611225565b61082a671cf17b4d63986f6460c01b611225565b61083e6727f37512afee360d60c01b611225565b600163ffffffff16905090565b6000610861675dbfec0358e6a9b760c01b611225565b61087567a15e9634f6049d5f60c01b611225565b61088967c0cf3af6b68ed63760c01b611225565b600361ffff16905090565b60006108aa67e8f508bd0c3d0bdf60c01b611225565b6108be67b675bd10980b3ba760c01b611225565b6108d26771d56279ab1e761f60c01b611225565b600160149054906101000a900460ff16905090565b600060606108ff6791698f60378a5d1160c01b611225565b6109136785dec27d0fa5a0c160c01b611225565b6109276762b0aee5aedccbce60c01b611225565b6000600160149054906101000a900460ff16600181111561094b5761094a6115fc565b5b6000600181111561095f5761095e6115fc565b5b149050610976672a848b61b5dbd07d60c01b611225565b61098a6750e5b27db04c9e3360c01b611225565b60007f0000000000000000000000000000000000000000000000000000000000000000600254426109bb9190611a3a565b1190506109d267f1813540b69953d560c01b611225565b6109e6676c5d487057ad4ddc60c01b611225565b600080600080549050119050610a06679f74f1b9085fbc0760c01b611225565b610a1a677eea53e3dd424e0360c01b611225565b60008047119050610a3567e52702c1ccbe3b0b60c01b611225565b838015610a3f5750825b8015610a485750815b8015610a515750805b955050505050915091565b6000610a7267440354ea4672345460c01b611225565b610a86676406429d1c5b1a9260c01b611225565b610a9a6789e6b616e0ee58a960c01b611225565b7f0000000000000000000000000000000000000000000000000000000000000000905090565b610ad467bf675a6444f82ca260c01b611225565b610ae867bddc7a77f04d738060c01b611225565b610afc673692e55692b4e61b60c01b611225565b7f0000000000000000000000000000000000000000000000000000000000000000341015610b7e57610b3867adf9f78f107692c460c01b611225565b610b4c6733481d132e59e1e860c01b611225565b6040517fec269fd100000000000000000000000000000000000000000000000000000000815260040160405180910390fd5b610b9267fe8cab79c36da0cb60c01b611225565b610ba6673a13e0390783988260c01b611225565b610bba67b6f1d8c92745e77d60c01b611225565b60006001811115610bce57610bcd6115fc565b5b600160149054906101000a900460ff166001811115610bf057610bef6115fc565b5b14610c4f57610c0967df9440e69178c3a460c01b611225565b610c1d676efbe6b2fb15faaf60c01b611225565b6040517fe76be6fc00000000000000000000000000000000000000000000000000000000815260040160405180910390fd5b610c636792eeba5f55f285b860c01b611225565b610c776728380439f8a2c15560c01b611225565b610c8b67a254d512c045124960c01b611225565b3373ffffffffffffffffffffffffffffffffffffffff167f1d64fb5ba9f2548c5b98468d58f25b87b9e866afee0122e92d9fe722bf85076c60405160405180910390a2610ce267b652bde00cca1de660c01b611225565b610cf6670b2a09ef79a6701460c01b611225565b6000339080600181540180825580915050600190039060005260206000200160009091909190916101000a81548173ffffffffffffffffffffffffffffffffffffffff021916908373ffffffffffffffffffffffffffffffffffffffff160217905550565b6000610d71678ab90a8fb3cca0cd60c01b611225565b610d8567ae76039a128c008160c01b611225565b610d9967620535403dca756e60c01b611225565b7f0000000000000000000000000000000000000000000000000000000000000000905090565b6000610dd567852598548e41a88e60c01b611225565b610de96711515863095c594660c01b611225565b610dfd67fc57049f3ac8ad3060c01b611225565b60008281548110610e1157610e10611a6e565b5b9060005260206000200160009054906101000a900473ffffffffffffffffffffffffffffffffffffffff169050919050565b6000610e5967143aa0ac913786ca60c01b611225565b610e6d67b6be1e9cda4611d760c01b611225565b610e81676d7124fbcaa1f42e60c01b611225565b600080549050905090565b610ea067671e6be76b45bec760c01b611225565b610eb46743e3f50b46d74b9060c01b611225565b610ec867b202ccf0aa0421e760c01b611225565b6000808054905082600081518110610ee357610ee2611a6e565b5b6020026020010151610ef59190611acc565b9050610f0b67fd3e23b487f4e82060c01b611225565b610f1f6702ffacb7603d2c5060c01b611225565b6000808281548110610f3457610f33611a6e565b5b9060005260206000200160009054906101000a900473ffffffffffffffffffffffffffffffffffffffff169050610f756768a6f005d0770a1960c01b611225565b80600160006101000a81548173ffffffffffffffffffffffffffffffffffffffff021916908373ffffffffffffffffffffffffffffffffffffffff160217905550610fca67ca8552a05678638d60c01b611225565b6000600160146101000a81548160ff02191690836001811115610ff057610fef6115fc565b5b0217905550611009673a5a22cb19860e0f60c01b611225565b600067ffffffffffffffff8111156110245761102361132f565b5b6040519080825280602002602001820160405280156110525781602001602082028036833780820191505090505b5060009080519060200190611068929190611228565b5061107d67445f8554a69e1eb260c01b611225565b426002819055506110986724d465c2480e539660c01b611225565b6110ac67f960dd2fee4ebb8f60c01b611225565b60008173ffffffffffffffffffffffffffffffffffffffff16476040516110d290611b2e565b60006040518083038185875af1925050503d806000811461110f576040519150601f19603f3d011682016040523d82523d6000602084013e611114565b606091505b5050905061112c6750b591c7a16f0c4660c01b611225565b6111406761d07c27555c39fa60c01b611225565b8061119f57611159675b9bdfd38763732760c01b611225565b61116d67ef77a243c1de6a1960c01b611225565b6040517f1c94012000000000000000000000000000000000000000000000000000000000815260040160405180910390fd5b6111b36711b1c1b263d876fb60c01b611225565b6111c76707b74e308c3015b760c01b611225565b6111db679ee7479afe7ad67a60c01b611225565b8173ffffffffffffffffffffffffffffffffffffffff167f5b690ec4a06fe979403046eaeea5b3ce38524683c3001f662c8b5a829632f7df60405160405180910390a25050505050565b50565b8280548282559060005260206000209081019282156112a1579160200282015b828111156112a05782518260006101000a81548173ffffffffffffffffffffffffffffffffffffffff021916908373ffffffffffffffffffffffffffffffffffffffff16021790555091602001919060010190611248565b5b5090506112ae91906112b2565b5090565b5b808211156112cb5760008160009055506001016112b3565b5090565b6000604051905090565b600080fd5b600080fd5b6000819050919050565b6112f6816112e3565b811461130157600080fd5b50565b600081359050611313816112ed565b92915050565b600080fd5b6000601f19601f8301169050919050565b7f4e487b7100000000000000000000000000000000000000000000000000000000600052604160045260246000fd5b6113678261131e565b810181811067ffffffffffffffff821117156113865761138561132f565b5b80604052505050565b60006113996112cf565b90506113a5828261135e565b919050565b600067ffffffffffffffff8211156113c5576113c461132f565b5b602082029050602081019050919050565b600080fd5b60006113ee6113e9846113aa565b61138f565b90508083825260208201905060208402830185811115611411576114106113d6565b5b835b8181101561143a57806114268882611304565b845260208401935050602081019050611413565b5050509392505050565b600082601f83011261145957611458611319565b5b81356114698482602086016113db565b91505092915050565b60008060408385031215611489576114886112d9565b5b600061149785828601611304565b925050602083013567ffffffffffffffff8111156114b8576114b76112de565b5b6114c485828601611444565b9150509250929050565b6114d7816112e3565b82525050565b60006020820190506114f260008301846114ce565b92915050565b600080fd5b60008083601f84011261151357611512611319565b5b8235905067ffffffffffffffff8111156115305761152f6114f8565b5b60208301915083600182028301111561154c5761154b6113d6565b5b9250929050565b6000806020838503121561156a576115696112d9565b5b600083013567ffffffffffffffff811115611588576115876112de565b5b611594858286016114fd565b92509250509250929050565b600073ffffffffffffffffffffffffffffffffffffffff82169050919050565b60006115cb826115a0565b9050919050565b6115db816115c0565b82525050565b60006020820190506115f660008301846115d2565b92915050565b7f4e487b7100000000000000000000000000000000000000000000000000000000600052602160045260246000fd5b6002811061163c5761163b6115fc565b5b50565b600081905061164d8261162b565b919050565b600061165d8261163f565b9050919050565b61166d81611652565b82525050565b60006020820190506116886000830184611664565b92915050565b600080fd5b600067ffffffffffffffff8211156116ae576116ad61132f565b5b6116b78261131e565b9050602081019050919050565b82818337600083830152505050565b60006116e66116e184611693565b61138f565b9050828152602081018484840111156117025761170161168e565b5b61170d8482856116c4565b509392505050565b600082601f83011261172a57611729611319565b5b813561173a8482602086016116d3565b91505092915050565b600060208284031215611759576117586112d9565b5b600082013567ffffffffffffffff811115611777576117766112de565b5b61178384828501611715565b91505092915050565b60008115159050919050565b6117a18161178c565b82525050565b600081519050919050565b600082825260208201905092915050565b60005b838110156117e15780820151818401526020810190506117c6565b60008484015250505050565b60006117f8826117a7565b61180281856117b2565b93506118128185602086016117c3565b61181b8161131e565b840191505092915050565b600060408201905061183b6000830185611798565b818103602083015261184d81846117ed565b90509392505050565b600067ffffffffffffffff82169050919050565b61187381611856565b82525050565b600060208201905061188e600083018461186a565b92915050565b6000602082840312156118aa576118a96112d9565b5b60006118b884828501611304565b91505092915050565b60006040820190506118d660008301856115d2565b6118e360208301846115d2565b9392505050565b60006060820190506118ff60008301866114ce565b61190c60208301856114ce565b61191960408301846114ce565b949350505050565b6000819050919050565b61193481611921565b82525050565b600061ffff82169050919050565b6119518161193a565b82525050565b600063ffffffff82169050919050565b61197081611957565b82525050565b600060a08201905061198b600083018861192b565b611998602083018761186a565b6119a56040830186611948565b6119b26060830185611967565b6119bf6080830184611967565b9695505050505050565b6000815190506119d8816112ed565b92915050565b6000602082840312156119f4576119f36112d9565b5b6000611a02848285016119c9565b91505092915050565b7f4e487b7100000000000000000000000000000000000000000000000000000000600052601160045260246000fd5b6000611a45826112e3565b9150611a50836112e3565b9250828203905081811115611a6857611a67611a0b565b5b92915050565b7f4e487b7100000000000000000000000000000000000000000000000000000000600052603260045260246000fd5b7f4e487b7100000000000000000000000000000000000000000000000000000000600052601260045260246000fd5b6000611ad7826112e3565b9150611ae2836112e3565b925082611af257611af1611a9d565b5b828206905092915050565b600081905092915050565b50565b6000611b18600083611afd565b9150611b2382611b08565b600082019050919050565b6000611b3982611b0b565b915081905091905056fea2646970667358221220874aa149028d2d64a4da9f31df0fae43f4109e0a494ab386de901f63de22020364736f6c63430008110033",
  "linkReferences": {},
  "deployedLinkReferences": {}
}