{
  "_format": "hh-sol-artifact-1",
  "contractName": "Lottery",
  "sourceName": "contracts/Lottery.sol",
  "abi": [
    {
      "inputs": [
        {
          "internalType": "address",
          "name": "vrfCoordinatorV2",
          "type": "address"
        },
        {
          "internalType": "uint256",
          "name": "enteranceFee",
          "type": "uint256"
        },
        {
          "internalType": "bytes32",
          "name": "keyHash",
          "type": "bytes32"
        },
        {
          "internalType": "uint64",
          "name": "subscriptionId",
          "type": "uint64"
        },
        {
          "internalType": "uint32",
          "name": "gasLimit",
          "type": "uint32"
        },
        {
          "internalType": "uint256",
          "name": "interval",
          "type": "uint256"
        }
      ],
      "stateMutability": "nonpayable",
      "type": "constructor"
    },
    {
      "inputs": [],
      "name": "Lottery__NotEnoughETHEntered",
      "type": "error"
    },
    {
      "inputs": [],
      "name": "Lottery__NotOpen",
      "type": "error"
    },
    {
      "inputs": [],
      "name": "Lottery__TransferFailed",
      "type": "error"
    },
    {
      "inputs": [
        {
          "internalType": "uint256",
          "name": "currentBalance",
          "type": "uint256"
        },
        {
          "internalType": "uint256",
          "name": "numPlayers",
          "type": "uint256"
        },
        {
          "internalType": "uint256",
          "name": "lotteryState",
          "type": "uint256"
        }
      ],
      "name": "Lottery__UpkeepNotNeeded",
      "type": "error"
    },
    {
      "inputs": [
        {
          "internalType": "address",
          "name": "have",
          "type": "address"
        },
        {
          "internalType": "address",
          "name": "want",
          "type": "address"
        }
      ],
      "name": "OnlyCoordinatorCanFulfill",
      "type": "error"
    },
    {
      "anonymous": false,
      "inputs": [
        {
          "indexed": true,
          "internalType": "address",
          "name": "player",
          "type": "address"
        }
      ],
      "name": "LotteryEnter",
      "type": "event"
    },
    {
      "anonymous": false,
      "inputs": [
        {
          "indexed": true,
          "internalType": "uint256",
          "name": "requestId",
          "type": "uint256"
        }
      ],
      "name": "RequestedLotteryWinner",
      "type": "event"
    },
    {
      "anonymous": false,
      "inputs": [
        {
          "indexed": true,
          "internalType": "address",
          "name": "winner",
          "type": "address"
        }
      ],
      "name": "WinnerPicked",
      "type": "event"
    },
    {
      "inputs": [
        {
          "internalType": "bytes",
          "name": "",
          "type": "bytes"
        }
      ],
      "name": "checkUpkeep",
      "outputs": [
        {
          "internalType": "bool",
          "name": "upkeepNeeded",
          "type": "bool"
        },
        {
          "internalType": "bytes",
          "name": "",
          "type": "bytes"
        }
      ],
      "stateMutability": "nonpayable",
      "type": "function"
    },
    {
      "inputs": [],
      "name": "enterLottery",
      "outputs": [],
      "stateMutability": "payable",
      "type": "function"
    },
    {
      "inputs": [
        {
          "internalType": "uint256",
          "name": "i_enteranceFee",
          "type": "uint256"
        }
      ],
      "name": "getEnteranceFee",
      "outputs": [
        {
          "internalType": "uint256",
          "name": "",
          "type": "uint256"
        }
      ],
      "stateMutability": "view",
      "type": "function"
    },
    {
      "inputs": [],
      "name": "getInterval",
      "outputs": [
        {
          "internalType": "uint256",
          "name": "",
          "type": "uint256"
        }
      ],
      "stateMutability": "view",
      "type": "function"
    },
    {
      "inputs": [],
      "name": "getLatestTimeStamp",
      "outputs": [
        {
          "internalType": "uint256",
          "name": "",
          "type": "uint256"
        }
      ],
      "stateMutability": "view",
      "type": "function"
    },
    {
      "inputs": [],
      "name": "getLotteryState",
      "outputs": [
        {
          "internalType": "enum Lottery.LotteryState",
          "name": "",
          "type": "uint8"
        }
      ],
      "stateMutability": "view",
      "type": "function"
    },
    {
      "inputs": [],
      "name": "getNumWords",
      "outputs": [
        {
          "internalType": "uint256",
          "name": "",
          "type": "uint256"
        }
      ],
      "stateMutability": "pure",
      "type": "function"
    },
    {
      "inputs": [],
      "name": "getNumberOfPlayers",
      "outputs": [
        {
          "internalType": "uint256",
          "name": "",
          "type": "uint256"
        }
      ],
      "stateMutability": "view",
      "type": "function"
    },
    {
      "inputs": [
        {
          "internalType": "uint256",
          "name": "index",
          "type": "uint256"
        }
      ],
      "name": "getPlayer",
      "outputs": [
        {
          "internalType": "address",
          "name": "",
          "type": "address"
        }
      ],
      "stateMutability": "view",
      "type": "function"
    },
    {
      "inputs": [],
      "name": "getRecentWinner",
      "outputs": [
        {
          "internalType": "address",
          "name": "",
          "type": "address"
        }
      ],
      "stateMutability": "view",
      "type": "function"
    },
    {
      "inputs": [],
      "name": "getRequestConfirmations",
      "outputs": [
        {
          "internalType": "uint256",
          "name": "",
          "type": "uint256"
        }
      ],
      "stateMutability": "pure",
      "type": "function"
    },
    {
      "inputs": [
        {
          "internalType": "bytes",
          "name": "",
          "type": "bytes"
        }
      ],
      "name": "performUpkeep",
      "outputs": [],
      "stateMutability": "nonpayable",
      "type": "function"
    },
    {
      "inputs": [
        {
          "internalType": "uint256",
          "name": "requestId",
          "type": "uint256"
        },
        {
          "internalType": "uint256[]",
          "name": "randomWords",
          "type": "uint256[]"
        }
      ],
      "name": "rawFulfillRandomWords",
      "outputs": [],
      "stateMutability": "nonpayable",
      "type": "function"
    }
  ],
  "bytecode": "0x6101606040523480156200001257600080fd5b50604051620017ef380380620017ef833981810160405281019062000038919062000294565b858073ffffffffffffffffffffffffffffffffffffffff1660808173ffffffffffffffffffffffffffffffffffffffff1681525050508460e081815250508573ffffffffffffffffffffffffffffffffffffffff1660a08173ffffffffffffffffffffffffffffffffffffffff16815250508360c081815250508267ffffffffffffffff166101008167ffffffffffffffff16815250508163ffffffff166101208163ffffffff16815250506000600160146101000a81548160ff021916908360018111156200010d576200010c62000330565b5b0217905550426002819055508061014081815250505050505050506200035f565b600080fd5b600073ffffffffffffffffffffffffffffffffffffffff82169050919050565b6000620001608262000133565b9050919050565b620001728162000153565b81146200017e57600080fd5b50565b600081519050620001928162000167565b92915050565b6000819050919050565b620001ad8162000198565b8114620001b957600080fd5b50565b600081519050620001cd81620001a2565b92915050565b6000819050919050565b620001e881620001d3565b8114620001f457600080fd5b50565b6000815190506200020881620001dd565b92915050565b600067ffffffffffffffff82169050919050565b6200022d816200020e565b81146200023957600080fd5b50565b6000815190506200024d8162000222565b92915050565b600063ffffffff82169050919050565b6200026e8162000253565b81146200027a57600080fd5b50565b6000815190506200028e8162000263565b92915050565b60008060008060008060c08789031215620002b457620002b36200012e565b5b6000620002c489828a0162000181565b9650506020620002d789828a01620001bc565b9550506040620002ea89828a01620001f7565b9450506060620002fd89828a016200023c565b93505060806200031089828a016200027d565b92505060a06200032389828a01620001bc565b9150509295509295509295565b7f4e487b7100000000000000000000000000000000000000000000000000000000600052602160045260246000fd5b60805160a05160c05160e051610100516101205161014051611427620003c86000396000818161066201526106d001526000610509015260006104e601526000610700015260006104c50152600061048901526000818161030a015261035e01526114276000f3fe6080604052600436106100c25760003560e01c80636b68c03c1161007f5780639e625493116100595780639e62549314610259578063c1af578514610296578063e55ae4e8146102a0578063fd6673f5146102dd576100c2565b80636b68c03c146101c55780636e04ff0d146101f057806391ad27b41461022e576100c2565b80631fe543e3146100c7578063320229eb146100f05780634585e33b1461011b578063473f1ddc1461014457806353a2c19a1461016f5780635f1b0fd81461019a575b600080fd5b3480156100d357600080fd5b506100ee60048036038101906100e99190610d3b565b610308565b005b3480156100fc57600080fd5b506101056103c8565b6040516101129190610da6565b60405180910390f35b34801561012757600080fd5b50610142600480360381019061013d9190610e1c565b6103d2565b005b34801561015057600080fd5b506101596105c2565b6040516101669190610eaa565b60405180910390f35b34801561017b57600080fd5b506101846105ec565b6040516101919190610da6565b60405180910390f35b3480156101a657600080fd5b506101af6105fb565b6040516101bc9190610da6565b60405180910390f35b3480156101d157600080fd5b506101da610608565b6040516101e79190610f3c565b60405180910390f35b3480156101fc57600080fd5b506102176004803603810190610212919061100c565b61061f565b6040516102259291906110ef565b60405180910390f35b34801561023a57600080fd5b506102436106cc565b6040516102509190610da6565b60405180910390f35b34801561026557600080fd5b50610280600480360381019061027b919061111f565b6106f4565b60405161028d9190610da6565b60405180910390f35b61029e6106fe565b005b3480156102ac57600080fd5b506102c760048036038101906102c2919061111f565b61086d565b6040516102d49190610eaa565b60405180910390f35b3480156102e957600080fd5b506102f26108b4565b6040516102ff9190610da6565b60405180910390f35b7f000000000000000000000000000000000000000000000000000000000000000073ffffffffffffffffffffffffffffffffffffffff163373ffffffffffffffffffffffffffffffffffffffff16146103ba57337f00000000000000000000000000000000000000000000000000000000000000006040517f1cf993f40000000000000000000000000000000000000000000000000000000081526004016103b192919061114c565b60405180910390fd5b6103c482826108c0565b5050565b6000600254905090565b60006103ec6040518060200160405280600081525061061f565b5090508061045b5747600080549050600160149054906101000a900460ff16600181111561041d5761041c610ec5565b5b6040517f6e195f2500000000000000000000000000000000000000000000000000000000815260040161045293929190611175565b60405180910390fd5b60018060146101000a81548160ff021916908360018111156104805761047f610ec5565b5b021790555060007f000000000000000000000000000000000000000000000000000000000000000073ffffffffffffffffffffffffffffffffffffffff16635d3b1d307f00000000000000000000000000000000000000000000000000000000000000007f000000000000000000000000000000000000000000000000000000000000000060037f000000000000000000000000000000000000000000000000000000000000000060016040518663ffffffff1660e01b815260040161054a959493929190611224565b6020604051808303816000875af1158015610569573d6000803e3d6000fd5b505050506040513d601f19601f8201168201806040525081019061058d919061128c565b9050807febf56642252004c18a776f30d528e7a0ce8c5db14b6596fb6550f630c8a24c6c60405160405180910390a250505050565b6000600160009054906101000a900473ffffffffffffffffffffffffffffffffffffffff16905090565b6000600163ffffffff16905090565b6000600361ffff16905090565b6000600160149054906101000a900460ff16905090565b600060606000600160149054906101000a900460ff16600181111561064757610646610ec5565b5b6000600181111561065b5761065a610ec5565b5b14905060007f00000000000000000000000000000000000000000000000000000000000000006002544261068f91906112e8565b119050600080600080549050119050600080471190508380156106af5750825b80156106b85750815b80156106c15750805b955050505050915091565b60007f0000000000000000000000000000000000000000000000000000000000000000905090565b6000819050919050565b7f0000000000000000000000000000000000000000000000000000000000000000341015610758576040517fec269fd100000000000000000000000000000000000000000000000000000000815260040160405180910390fd5b6000600181111561076c5761076b610ec5565b5b600160149054906101000a900460ff16600181111561078e5761078d610ec5565b5b146107c5576040517fe76be6fc00000000000000000000000000000000000000000000000000000000815260040160405180910390fd5b3373ffffffffffffffffffffffffffffffffffffffff167f1d64fb5ba9f2548c5b98468d58f25b87b9e866afee0122e92d9fe722bf85076c60405160405180910390a26000339080600181540180825580915050600190039060005260206000200160009091909190916101000a81548173ffffffffffffffffffffffffffffffffffffffff021916908373ffffffffffffffffffffffffffffffffffffffff160217905550565b60008082815481106108825761088161131c565b5b9060005260206000200160009054906101000a900473ffffffffffffffffffffffffffffffffffffffff169050919050565b60008080549050905090565b60008080549050826000815181106108db576108da61131c565b5b60200260200101516108ed919061137a565b905060008082815481106109045761090361131c565b5b9060005260206000200160009054906101000a900473ffffffffffffffffffffffffffffffffffffffff16905080600160006101000a81548173ffffffffffffffffffffffffffffffffffffffff021916908373ffffffffffffffffffffffffffffffffffffffff1602179055506000600160146101000a81548160ff0219169083600181111561099857610997610ec5565b5b0217905550600067ffffffffffffffff8111156109b8576109b7610bf8565b5b6040519080825280602002602001820160405280156109e65781602001602082028036833780820191505090505b50600090805190602001906109fc929190610af1565b504260028190555060008173ffffffffffffffffffffffffffffffffffffffff1647604051610a2a906113dc565b60006040518083038185875af1925050503d8060008114610a67576040519150601f19603f3d011682016040523d82523d6000602084013e610a6c565b606091505b5050905080610aa7576040517f1c94012000000000000000000000000000000000000000000000000000000000815260040160405180910390fd5b8173ffffffffffffffffffffffffffffffffffffffff167f5b690ec4a06fe979403046eaeea5b3ce38524683c3001f662c8b5a829632f7df60405160405180910390a25050505050565b828054828255906000526020600020908101928215610b6a579160200282015b82811115610b695782518260006101000a81548173ffffffffffffffffffffffffffffffffffffffff021916908373ffffffffffffffffffffffffffffffffffffffff16021790555091602001919060010190610b11565b5b509050610b779190610b7b565b5090565b5b80821115610b94576000816000905550600101610b7c565b5090565b6000604051905090565b600080fd5b600080fd5b6000819050919050565b610bbf81610bac565b8114610bca57600080fd5b50565b600081359050610bdc81610bb6565b92915050565b600080fd5b6000601f19601f8301169050919050565b7f4e487b7100000000000000000000000000000000000000000000000000000000600052604160045260246000fd5b610c3082610be7565b810181811067ffffffffffffffff82111715610c4f57610c4e610bf8565b5b80604052505050565b6000610c62610b98565b9050610c6e8282610c27565b919050565b600067ffffffffffffffff821115610c8e57610c8d610bf8565b5b602082029050602081019050919050565b600080fd5b6000610cb7610cb284610c73565b610c58565b90508083825260208201905060208402830185811115610cda57610cd9610c9f565b5b835b81811015610d035780610cef8882610bcd565b845260208401935050602081019050610cdc565b5050509392505050565b600082601f830112610d2257610d21610be2565b5b8135610d32848260208601610ca4565b91505092915050565b60008060408385031215610d5257610d51610ba2565b5b6000610d6085828601610bcd565b925050602083013567ffffffffffffffff811115610d8157610d80610ba7565b5b610d8d85828601610d0d565b9150509250929050565b610da081610bac565b82525050565b6000602082019050610dbb6000830184610d97565b92915050565b600080fd5b60008083601f840112610ddc57610ddb610be2565b5b8235905067ffffffffffffffff811115610df957610df8610dc1565b5b602083019150836001820283011115610e1557610e14610c9f565b5b9250929050565b60008060208385031215610e3357610e32610ba2565b5b600083013567ffffffffffffffff811115610e5157610e50610ba7565b5b610e5d85828601610dc6565b92509250509250929050565b600073ffffffffffffffffffffffffffffffffffffffff82169050919050565b6000610e9482610e69565b9050919050565b610ea481610e89565b82525050565b6000602082019050610ebf6000830184610e9b565b92915050565b7f4e487b7100000000000000000000000000000000000000000000000000000000600052602160045260246000fd5b60028110610f0557610f04610ec5565b5b50565b6000819050610f1682610ef4565b919050565b6000610f2682610f08565b9050919050565b610f3681610f1b565b82525050565b6000602082019050610f516000830184610f2d565b92915050565b600080fd5b600067ffffffffffffffff821115610f7757610f76610bf8565b5b610f8082610be7565b9050602081019050919050565b82818337600083830152505050565b6000610faf610faa84610f5c565b610c58565b905082815260208101848484011115610fcb57610fca610f57565b5b610fd6848285610f8d565b509392505050565b600082601f830112610ff357610ff2610be2565b5b8135611003848260208601610f9c565b91505092915050565b60006020828403121561102257611021610ba2565b5b600082013567ffffffffffffffff8111156110405761103f610ba7565b5b61104c84828501610fde565b91505092915050565b60008115159050919050565b61106a81611055565b82525050565b600081519050919050565b600082825260208201905092915050565b60005b838110156110aa57808201518184015260208101905061108f565b60008484015250505050565b60006110c182611070565b6110cb818561107b565b93506110db81856020860161108c565b6110e481610be7565b840191505092915050565b60006040820190506111046000830185611061565b818103602083015261111681846110b6565b90509392505050565b60006020828403121561113557611134610ba2565b5b600061114384828501610bcd565b91505092915050565b60006040820190506111616000830185610e9b565b61116e6020830184610e9b565b9392505050565b600060608201905061118a6000830186610d97565b6111976020830185610d97565b6111a46040830184610d97565b949350505050565b6000819050919050565b6111bf816111ac565b82525050565b600067ffffffffffffffff82169050919050565b6111e2816111c5565b82525050565b600061ffff82169050919050565b6111ff816111e8565b82525050565b600063ffffffff82169050919050565b61121e81611205565b82525050565b600060a08201905061123960008301886111b6565b61124660208301876111d9565b61125360408301866111f6565b6112606060830185611215565b61126d6080830184611215565b9695505050505050565b60008151905061128681610bb6565b92915050565b6000602082840312156112a2576112a1610ba2565b5b60006112b084828501611277565b91505092915050565b7f4e487b7100000000000000000000000000000000000000000000000000000000600052601160045260246000fd5b60006112f382610bac565b91506112fe83610bac565b9250828203905081811115611316576113156112b9565b5b92915050565b7f4e487b7100000000000000000000000000000000000000000000000000000000600052603260045260246000fd5b7f4e487b7100000000000000000000000000000000000000000000000000000000600052601260045260246000fd5b600061138582610bac565b915061139083610bac565b9250826113a05761139f61134b565b5b828206905092915050565b600081905092915050565b50565b60006113c66000836113ab565b91506113d1826113b6565b600082019050919050565b60006113e7826113b9565b915081905091905056fea2646970667358221220801d609ebe4d3cbe80822851ffea7eb30f778f4673c834f3f4967e51d8f9b12f64736f6c63430008110033",
  "linkReferences": {},
  "deployedLinkReferences": {}
}